:1000000012C01FC01EC01DC01CC01BC01AC019C01A
:1000100018C017C016C015C014C013C012C011C03C
:1000200010C00FC00EC011241FBECFEDCDBF20E009
:10003000A0E6B0E001C01D92A136B207E1F70ED0F4
:1000400027C0DECF85E089B912B888E18AB98EE091
:1000500083B908955F9BFECF8CB108958FEF87BB66
:10006000F1DF18BAF7DF80936000813009F4C09A9D
:1000700080916000823009F4C098809160008330E4
:1000800009F4C19A80916000843061F7C198EACF89
:04009000F894FFCF12
:00000001FF
